:1000000000E00FBF0FE004B900EF0AB912E015B924
:100010000E94D90011E015B90E94D90011E015B96C
:100020000E94D90013E015B90E94D90014E015B957
:100030000E94D90011E015B90E94D90015E015B948
:100040000E94D90018E015B90E94D90010E015B936
:100050000E94D9001AE015B90E94D9001BE115B918
:100060001BB90E94D90018E115B91BB90E94D9002B
:1000700010E015B91BB90E94D9000FE004B900EFD8
:100080000AB9C2E3D1E080E09FEF85B98BB9D130E6
:1000900031F10E94F0001C2F0E94C800203011F4A2
:1000A0000E94B700C03079F700C008E005B90E948F
:1000B000E000069505B90E94E000069505B90E948A
:1000C000E000069505B90E94E000000F05B90E9406
:1000D000E000000F05B90E94E000E7CFFFCF95B91F
:1000E0009BB90E94E00085B98BB90E94E00095B9E8
:1000F0009BB90E94D20085B98BB90E94E00095B9E6
:100100009BB90E94D20085B98BB90E94E00095B9D5
:100110009BB90E94D20085B98BB90E94D20095B9D3
:100120009BB90E94E00085B98BB90E94E00095B9A7
:100130009BB90E94E00085B98BB90E94D20095B9A5
:100140009BB90E94E00085B98BB90E94E00095B987
:100150009BB90E94D20085B98BB90E94D2000E943F
:10016000D2000E94E000CA95D1950E944B00A5E004
:1001700095B99BB90E94E00085B98BB90E94E00057
:10018000AA95A030A9F70E94D2000E94D2008ACF7F
:100190002227153014F421E0089515501030C9F7C6
:1001A00020E0089573E00E94E0007A957030D9F75E
:1001B000089565E00E94E0006A956030D9F70895DF
:1001C0003FEF4FEF5AE000003A953030E1F73FEF54
:1001D0004A954030C1F74FEF5A955030A1F7089536
:1001E00095B99BB90E94E00085B98BB90E94E000E7
:1001F00095B99BB90E94D20085B98BB90E94D200F3
:1002000095B99BB90E94E00085B98BB90E94E000C6
:1002100095B99BB90E94E00085B98BB90E94D200C4
:1002200095B99BB90E94E00085B98BB90E94E000A6
:1002300095B99BB90E94D20085B98BB90E94E000A4
:1002400095B99BB90E94D20085B98BB90E94E00094
:1002500095B99BB90E94D20085B98BB90E94D20092
:100260000E94D2000E94E000CA95D1950E944B00E6
:00000001FF
